:020000040000FA
:2000000080311228FF3FFF3F7E14803120007F08F0008D1692128531852570082000FF0061
:200020007E10090080311428A4308400853085007630860000308700033085319825803170
:20004000773084008530850044308600003087000E30853198258031F901FA01203084005F
:2000600000308500243085319E257E10200080313928210099151916991619178B170B179D
:2000800092122000111392121B3021008C0007308E008D0120000E128E128E118E138D13C9
:2000A0008C128D16133023008C008D0107308E00F33021009E00CB30220097009D01033053
:2000C0009E009F3020009B008C302500930050309100503094005030F6000030F700103082
:2000E000950095174E302000D2005208D500FA010C3026009A001530280096000B302600C5
:20010000980025001E083F3940389E00CF309E05F3309E05FC309E05200091109101920151
:20012000FC309C05FC302800970520001C15280017152000911C992891100330D4000830EF
:20014000D3007830D200D20BA328D30BA328D40BA32804302200910090309200C030980096
:200160000F30990003302000D4000830D3007830D200D20BB928D30BB928D40BB928250099
:2001800095132000911CF42884317D248031F42885314725803172082000B3007108B20060
:2001A000C301C30A032985315725803172082000B1007108B0000230E628853167258031F8
:2001C00072082000AF007108AE000330D2005208C300032985312125803172082000BD005D
:2001E0007108BC00C301032920004308003A0319C828013A0319D328033A0319DD28013A3E
:200200000319EA28032933083502031D09293208340203180F290130B4070030B53D3508B2
:200220003302031D15293408320203181B290130B4020030B53B00303502FA300319340272
:20024000031C73296F307806031D7329023035029E3003193402031C32290130F6070030A9
:20026000F73D412902303502AC30031934020318652976087704031941290130F6020030C8
:20028000F73B5508D200D30177085302031D4A2976085202031853295508D200D3015208FC
:2002A000F6005308F7007A08D200D30177085302031D5C2976085202031C65297A08D20082
:2002C000D3015208F6005308F70002303502A33003193402031C70294F30F6000030F700C6
:2002E000760825009400003020003502FA30031934020318AA296F307806031DAA29013095
:20030000F6070030F73D5508D200D30177085302031D8C2976085202031895295508D200F6
:20032000D3015208F6005308F7007A08D200D30177085302031D9E2976085202031CA729A3
:200340007A08D200D3015208F6005308F70076082500940073307806031D222A20002C08BB
:200360002D040319222A02303502A33003193402031CE6290130F6070030F73D5508D20067
:20038000D30177085302031DC729760852020318D0295508D200D3015208F6005308F7001A
:2003A0007A08D200D30177085302031DD92976085202031CE2297A08D200D3015208F600AB
:2003C0005308F700760825009400222A01302000A2070030A33D323022062304031D222A21
:2003E000760877040319F8290130F6020030F73B5508D200D30177085302031D012A76089C
:20040000520203180A2A5508D200D3015208F6005308F7007A08D200D30177085302031D78
:20042000132A76085202031C1C2A7A08D200D3015208F6005308F700760825009400200027
:20044000A201A301733078060319512AFC2A8E118E138D134F30432A8E158E138D134E3049
:20046000432A8E118E178D134D30432A8E118E138D174C30432A8E118E17402A8E158E1382
:200480008D138C164B30F6000030F700612A8E158E138D138C16612A6F30D2005208F80023
:2004A000612A20003908003A0319572A612A38088400083004020318612A85310435373EE2
:2004C000820002303502A43003193402031C6C2A5030F6000030F700760825009400003052
:2004E00020003302843003193202031C822A003039020530031938020318822A0130AC003E
:200500000030AD0000303902043003193802031C902A2C082D04031D902A85318F258031D6
:20052000003020003902053003193802031CFC2A2C082D040319FC2A6F3078060319FC2A5A
:200540000130BA070030BB3D64303A063B04031DB12A760877040319B12A0130F60200302A
:20056000F73B760825009400023020003302A43003193202031CE72A0130F6070030F73DA5
:200580005508D200D30177085302031DC92A760852020318D22A5508D200D3015208F60035
:2005A0005308F7007A08D200D30177085302031DDB2A76085202031CE42A7A08D200D301A1
:2005C0005208F6005308F700760825009400003020003B02C83003193A02031CF12ABA0170
:2005E000BB01003077020230031976020318FC2A0130F6000030F7006F307806031D1B2BBE
:2006000020004308031D1B2B00303D027F3003193C020318172B50080319102B0130D00282
:200620005008031D1B2B7430D2005208F8003230D2005208D00074307806031D3F2B220008
:20064000911304302000A8000030A9008E118D162500951701302000B6070030B73D0B30A1
:200660003702B83003193602031C3A2B0230F906B601B701F91C3E2B8E173F2B8E1374300F
:200680007806031D6A2B20004308031D6A2B00303D02D83003193C02031C652B5108031912
:2006A000532B0130D1025108031D6A2B0B30D4002630D3006630D200D20B5C2BD30B5C2B41
:2006C000D40B5C2B003201006A2B32302000D2005208D1000130200031028B3003193002E0
:2006E0000318772B0130C6020030C73B7B2BD030C6000730C70002303102BF300319300206
:20070000031C872B0130C4020030C53B8B2BD030C4000730C50046084704031D942B2200D1
:200720009113853105258031200044084504031D9E2B220091138431E42480316F30780695
:20074000031DF02B20008D128E1502302F026A3003192E02031CB12B7914F030C800D23041
:20076000C90003302F02203003192E02031CBD2B6430A4000030A5008E1724082504031986
:20078000C52B0130A4020030A53B2408250403198E1303302F023E3003192E02031CE32B25
:2007A0000130D2005208C2070C304202031CE42B0C30D2005208C2005030A6000030A7003E
:2007C0008E178D17E42BC201260827040319EC2B0130A6020030A73B2608270403198D1372
:2007E00020004A084B04031DC1286F307806031DC1282100921622009117C128791C122CBA
:200800002000480849040319092C0130C8020030C93B48084904031D122C7910F030C8002F
:20082000D230C9006F307806031D0800013020003D027C3003193C0203187918232C0130E6
:20084000A8000030A900043028062904031D791C2D2C0230A8000030A90001303D025E30C9
:2008600003193C020318492C4E084F0403193C2C0130CE020030CF3B4E084F04031D742CBD
:200880000430A8000030A900B030CE000430CF00742CB030CE000430CF0001303D02683099
:2008A00003193C02031C742C01303D027C3003193C020318742C043028062904031D742C9F
:2008C0004C084D040319682C0130CC020030CD3B4C084D04031D742C0230A8000030A90074
:2008E000B030CC000430CD004A084B04031908000130CA020030CB3B080001302000BE0735
:200900000030BF3D05303E063F0403198C2C0A303E063F04031DA02C0130A0070030A13D88
:20092000143020062104031DA02CA001A1016F30780603199F2C74307806031DA02C8C1645
:2009400028032904031DA92C0A302006210403198C12023028062904031DB32C0F3020061A
:20096000210403198C1203302806290403198C1604302806290403198C1608303E063F0440
:20098000031DE22C8331FE2384312000BE01BF010130C0070030C13D2030400603300319F5
:2009A0004106031DD92CC001C1010130B8070030B93D003039020A3003193802031CE22C0A
:2009C000B801B9019110080020008D16250095172000B801B9018E118E13911CF22C843114
:2009E0007D2484312000380839040319012D0230380639040319012D043038063904031DF4
:200A0000032D8D17EB2C8D13EB2C20008D16250095172000B801B9018E118E13911C132DE0
:200A200084317D24853120003808390403191D2D023038063904031D1F2D8D170C2D8D1311
:200A40000C2DF401F5010D3021009D000D30F300F30B282D21009D149D182C2D1C08F500FB
:200A60001B08F4007508F2007408F10008008231272A82312C2A8231312A8231362A82319A
:200A80003B2A82313E2A8231472A82314C2A193021009D000D30F300F30B4C2D21009D1409
:200AA0009D18502D1C08F2001B08F1000800153021009D000D30F300F30B5C2D21009D1446
:200AC0009D18602D1C08F2001B08F1000800113021009D000D30F300F30B6C2D21009D140A
:200AE0009D18702D1C08F2001B08F1000800D0340734D0340734F034D234B8340B34B034BB
:200B00000434B0340434FF34FF3420008D168E118E138D172500951720008C16852D20000F
:200B20008E158E138D178D16250095179C178F2DFE0012001E00FE0B992D003464008001D4
:200B40000131890B9F2D0034643400347334FF3FFF3FFF3FFF3FFF3FFF3FFF3FFF3FFF3F2E
:200B6000FF3FFF3FFF3FFF3FFF3FFF3FFF3FFF3FFF3FFF3FFF3FFF3FFF3FFF3FFF3FFF3F95
:200B8000FF3FFF3FFF3FFF3FFF3FFF3FFF3FFF3FFF3FFF3FFF3FFF3FFF3FFF3FFF3FFF3F75
:200BA000FF3FFF3FFF3FFF3FFF3FFF3FFF3FFF3FFF3FFF3FFF3FFF3FFF3FFF3FFF3FFF3F55
:200BC000FF3FFF3FFF3FFF3FFF3FFF3FFF3FFF3FFF3FFF3FFF3FFF3FFF3FFF3FFF3FFF3F35
:020000040001F9
:20000000FF3FFF3FFF3FFF3F000000000000443FFF3F000000000000000000000000000027
:200020000000000000000000000000000000000000000000000000000000000000000000C0
:200040000000000000000000000000000000000000000000000000000000000000000000A0
:20006000000000000000000000000000000000000000000000000000000000000000000080
:20008000000000000000000000000000000000000000000000000000000000000000000060
:00000001FF